:100000000C942A000C9434000C9434000C943400AA
:100010000C9434000C9434000C9434000C94340090
:100020000C9434000C9434000C9434000C94340080
:100030000C9434000C9434000C9434000C94340070
:100040000C9434000C9434000C9434000C94340060
:100050000C94340011241FBECFE5D8E0DEBFCDBF25
:100060000E9499030C94BC030C940000DF93CF937F
:1000700000D000D0CDB7DEB789836A838981282F6D
:1000800030E03C832B838B819C8182309105D9F0B9
:100090002B813C812330310534F48B819C8181306C
:1000A000910561F01EC02B813C812330310581F028
:1000B0008B819C818430910581F013C0EAE3F0E0EC
:1000C0008A8180830EC0E7E3F0E08A81808309C0E3
:1000D000E4E3F0E08A81808304C0E1E3F0E08A8118
:1000E00080830F900F900F900F90CF91DF91089524
:1000F000DF93CF93CDB7DEB727970FB6F894DEBF67
:100100000FBECDBF89836A834B838A81883008F014
:10011000ECC08B81813009F070C08981282F30E0DC
:100120003F832E838E819F818230910551F12E81F4
:100130003F812330310534F48E819F8181309105D8
:1001400061F0D3C02E813F812330310571F18E8162
:100150009F8184309105E9F1C8C0AAE3B0E0EAE3E9
:10016000F0E08081482F8A81282F30E081E090E004
:10017000022E02C0880F991F0A94E2F7842B8C93F9
:10018000B4C0A7E3B0E0E7E3F0E08081482F8A81C4
:10019000282F30E081E090E0022E02C0880F991FE6
:1001A0000A94E2F7842B8C93A0C0A4E3B0E0E4E3CC
:1001B000F0E08081482F8A81282F30E081E090E0B4
:1001C000022E02C0880F991F0A94E2F7842B8C93A9
:1001D0008CC0A1E3B0E0E1E3F0E08081482F8A81A8
:1001E000282F30E081E090E0022E02C0880F991F96
:1001F0000A94E2F7842B8C9378C08B81882309F0D2
:1002000074C08981282F30E03D832C838C819D81AF
:100210008230910561F12C813D812330310534F428
:100220008C819D818130910569F05FC02C813D8179
:100230002330310589F18C819D818430910509F449
:1002400040C053C0AAE3B0E0EAE3F0E08081482F69
:100250008A81282F30E081E090E0022E02C0880FD2
:10026000991F0A94E2F7809584238C933EC0A7E3FC
:10027000B0E0E7E3F0E08081482F8A81282F30E06A
:1002800081E090E0022E02C0880F991F0A94E2F7E5
:10029000809584238C9329C0A4E3B0E0E4E3F0E0EC
:1002A0008081482F8A81282F30E081E090E0022E63
:1002B00002C0880F991F0A94E2F7809584238C93DB
:1002C00014C0A1E3B0E0E1E3F0E08081482F8A812F
:1002D000282F30E081E090E0022E02C0880F991FA5
:1002E0000A94E2F7809584238C9327960FB6F894AE
:1002F000DEBF0FBECDBFCF91DF910895DF93CF93C7
:1003000000D000D0CDB7DEB789836A838981282FDA
:1003100030E03C832B838B819C8182309105D9F026
:100320002B813C812330310534F48B819C818130D9
:10033000910561F01EC02B813C812330310581F095
:100340008B819C818430910581F013C0EBE3F0E058
:100350008A8180830EC0E8E3F0E08A81808309C04F
:10036000E5E3F0E08A81808304C0E2E3F0E08A8183
:1003700080830F900F900F900F90CF91DF91089591
:10038000DF93CF93CDB7DEB727970FB6F894DEBFD4
:100390000FBECDBF89836A834B838A81883008F082
:1003A000ECC08B81813009F070C08981282F30E04A
:1003B0003F832E838E819F818230910551F12E8162
:1003C0003F812330310534F48E819F818130910546
:1003D00061F0D3C02E813F812330310571F18E81D0
:1003E0009F8184309105E9F1C8C0ABE3B0E0EBE355
:1003F000F0E08081482F8A81282F30E081E090E072
:10040000022E02C0880F991F0A94E2F7842B8C9366
:10041000B4C0A8E3B0E0E8E3F0E08081482F8A812F
:10042000282F30E081E090E0022E02C0880F991F53
:100430000A94E2F7842B8C93A0C0A5E3B0E0E5E337
:10044000F0E08081482F8A81282F30E081E090E021
:10045000022E02C0880F991F0A94E2F7842B8C9316
:100460008CC0A2E3B0E0E2E3F0E08081482F8A8113
:10047000282F30E081E090E0022E02C0880F991F03
:100480000A94E2F7842B8C9378C08B81882309F03F
:1004900074C08981282F30E03D832C838C819D811D
:1004A0008230910561F12C813D812330310534F496
:1004B0008C819D818130910569F05FC02C813D81E7
:1004C0002330310589F18C819D818430910509F4B7
:1004D00040C053C0ABE3B0E0EBE3F0E08081482FD5
:1004E0008A81282F30E081E090E0022E02C0880F40
:1004F000991F0A94E2F7809584238C933EC0A8E369
:10050000B0E0E8E3F0E08081482F8A81282F30E0D6
:1005100081E090E0022E02C0880F991F0A94E2F752
:10052000809584238C9329C0A5E3B0E0E5E3F0E057
:100530008081482F8A81282F30E081E090E0022ED0
:1005400002C0880F991F0A94E2F7809584238C9348
:1005500014C0A2E3B0E0E2E3F0E08081482F8A819A
:10056000282F30E081E090E0022E02C0880F991F12
:100570000A94E2F7809584238C9327960FB6F8941B
:10058000DEBF0FBECDBFCF91DF910895DF93CF9334
:1005900000D000D00F92CDB7DEB78A836B8319826B
:1005A0008B81883008F067C08A81282F30E03D8336
:1005B0002C834C815D814230510541F18C819D81BC
:1005C0008330910534F42C813D812130310561F077
:1005D00052C04C815D814330510551F18C819D8128
:1005E00084309105B9F147C0E9E3F0E08081282F1C
:1005F00030E08B81882F90E0A90102C05595479586
:100600008A95E2F7CA018170898335C0E6E3F0E09C
:100610008081282F30E08B81882F90E0A90102C0D3
:10062000559547958A95E2F7CA018170898323C061
:10063000E3E3F0E08081282F30E08B81882F90E089
:10064000A90102C0559547958A95E2F7CA018170C4
:10065000898311C0E0E3F0E08081282F30E08B81B6
:10066000882F90E0A90102C0559547958A95E2F739
:10067000CA018170898389810F900F900F900F902C
:100680000F90CF91DF910895DF93CF93CDB7DEB771
:10069000ADE2B0E0EDE2F0E0808180618C93ADE20C
:1006A000B0E0EDE2F0E0808180648C93ADE2B0E0F8
:1006B000EDE2F0E0808181608C93ADE2B0E0EDE2AC
:1006C000F0E0808182608C93AEE2B0E0EEE2F0E098
:1006D000808181608C93CF91DF910895DF93CF93D8
:1006E000CDB7DEB7ADE2B0E0EDE2F0E080818F7E25
:1006F0008C93ADE2B0E0EDE2F0E0808180648C9319
:10070000CF91DF910895DF93CF930F92CDB7DEB7EE
:100710008983EFE2F0E089818083EEE2F0E080817E
:100720008823DCF7EFE2F0E080810F90CF91DF913A
:100730000895DF93CF93CDB7DEB782E065E041E067
:100740000E94780082E064E041E00E94780082E04C
:1007500064E040E00E94C00182E066E040E00E9468
:10076000780082E067E041E00E9478000E94440344
:0C07700085E00E948303FCCFF894FFCFCB
:00000001FF
