:100000000C942A000C94790E0C94AE0E0C94E30E12
:100010000C9447000C9447000C9447000C94470044
:100020000C9447000C9447000C948D0F0C944700DF
:100030000C9447000C9447000C9447000C94470024
:100040000C9447000C9447000C9447000C94470014
:100050000C94470011241FBECFE5D4E0DEBFCDBF16
:1000600010E0A0E6B0E0ECEEF1E202C005900D92E7
:10007000AC37B107D9F710E0ACE7B0E001C01D9292
:10008000A938B107E1F70E9408100C94F4100C9401
:100090000000EF92FF920F931F937B018C0120E0F1
:1000A00030E040E05FE40E94490388238CF0C801FF
:1000B000B70120E030E040E05FE40E94C1010E940F
:1000C000A9039B01AC01205030404040504806C07D
:1000D000C801B7010E94A9039B01AC01B901CA0183
:1000E0001F910F91FF90EF900895A0E0B0E0EBE733
:1000F000F0E00C94BD10DC012B01FA019C919230D0
:1001000008F439C1EB018881823008F433C194309E
:1001100069F4843009F02FC111969C91119789815F
:10012000981709F428C1A4E7B0E025C1843009F488
:1001300021C18230A9F4923009F01DC19A01AD01AC
:1001400088E0EA010990AE01E90109929E0181501F
:10015000C1F7E201898111969C918923818308C1AD
:10016000923009F407C112962D903C901397EB0141
:100170008A819B811496AD90BD90CD90DC901797AD
:10018000EC80FD800E811F819101281B390BB90184
:1001900037FF04C066277727621B730B6032710537
:1001A0000CF061C0121613066CF537014801062EDB
:1001B00004C096948794779467940A94D2F721E0C8
:1001C00030E040E050E004C0220F331F441F551FB1
:1001D0006A95D2F721503040404050402E213F21B7
:1001E00040235123211531054105510521F021E01E
:1001F00030E040E050E079018A01E628F72808293C
:1002000019293CC0232BD1F1260E371E350146019A
:10021000062E04C096948794779467940A94D2F734
:1002200021E030E040E050E004C0220F331F441FC3
:10023000551F6A95D2F721503040404050402A2146
:100240003B214C215D21211531054105510521F04E
:1002500021E030E040E050E059016A01A628B728CB
:10026000C828D9280BC0821593052CF01C01AA249C
:10027000BB24650103C0EE24FF24870111969C91E5
:10028000D20111968C91981709F445C0992339F041
:10029000A80197012A193B094C095D0906C0A6016E
:1002A00095012E193F09400B510B57FD08C01182D3
:1002B0003382228224833583468357831DC081E0A5
:1002C00081833382228288279927DC01821B930B4A
:1002D000A40BB50B84839583A683B7830DC0220F2F
:1002E000331F441F551F24833583468357838281E0
:1002F000938101979383828324813581468157813D
:10030000DA01C9010197A109B1098F5F9F4FAF4F72
:10031000BF4328F30BC0918333822282EA0CFB1C7B
:100320000C1D1D1DE482F5820683178383E0808304
:10033000248135814681578157FF1AC0C901AA27F8
:1003400097FDA095BA2F81709070A070B0705695EF
:10035000479537952795822B932BA42BB52B848318
:100360009583A683B7838281938101969383828349
:10037000DF0101C0D201CD01CDB7DEB7E2E10C94BF
:10038000D910A0E2B0E0E7ECF1E00C94C910698369
:100390007A838B839C832D833E834F835887E9E048
:1003A000EE2EF12CEC0EFD1ECE010196B7010E943F
:1003B000D2048E010F5E1F4FCE010596B8010E9438
:1003C000D2048A8991E089278A8BC701B801AE01DE
:1003D000475E5F4F0E9475000E94FD03A096E6E015
:1003E0000C94E510A0E2B0E0E8EFF1E00C94C91045
:1003F00069837A838B839C832D833E834F835887C5
:10040000F9E0EF2EF12CEC0EFD1ECE010196B701A6
:100410000E94D2048E010F5E1F4FCE010596B801D7
:100420000E94D204C701B801AE01475E5F4F0E942F
:1004300075000E94FD03A096E6E00C94E510A0E292
:10044000B0E0E5E2F2E00C94BD1069837A838B831F
:100450009C832D833E834F835887CE010196BE0136
:10046000675F7F4F0E94D204CE010596BE016F5E8A
:100470007F4F0E94D2049985923088F0898982301A
:10048000C8F0943019F4823051F404C0843029F457
:10049000923081F484E790E0C6C0923049F420E0C5
:1004A0009A858A89981321E02A87CE010996BBC0D4
:1004B000823049F420E09A858A89981321E02A8BBA
:1004C000CE014196B0C02D843E844F8458886D88FB
:1004D0007E888F88988CEE24FF248701AA24BB2471
:1004E000650140E050E060E070E0E0E0F0E0C10174
:1004F00081709070892BE9F0E60CF71C081D191D1E
:100500009A01AB012A0D3B1D4C1D5D1D80E090E062
:10051000A0E0B0E0E614F7040805190520F481E036
:1005200090E0A0E0B0E0BA01A901480F591F6A1F8E
:100530007B1FAA0CBB1CCC1CDD1C97FE08C081E0F5
:1005400090E0A0E0B0E0A82AB92ACA2ADB2A3196B6
:10055000E032F10549F0660C771C881C991C569412
:10056000479437942794C3CFFA85EA892B893C892D
:100570008B859C85280F391F2E5F3F4F17C0CA01FE
:1005800081709070892B61F016950795F794E79428
:1005900080E090E0A0E0B0E8E82AF92A0A2B1B2BC3
:1005A00076956795579547952F5F3F4F77FDE7CF36
:1005B0000CC0440F551F661F771F17FD4160EE0CDE
:1005C000FF1C001F111F21503040403090E05907A0
:1005D00090E0690790E4790760F32B8F3C8FDB0193
:1005E000CA018F779070A070B07080349105A1051A
:1005F000B10561F447FD0AC0E114F10401051105DC
:1006000029F0405C5F4F6F4F7F4F40781A8EFE1786
:1006100011F081E08A8F4D8F5E8F6F8F78A383E01A
:10062000898FCE0149960E94FD03A096E2E10C94C9
:10063000D910A8E1B0E0EFE1F3E00C94C9106983B0
:100640007A838B839C832D833E834F83588789E0F5
:10065000E82EF12CEC0EFD1ECE010196B7010E9492
:10066000D2048E010F5E1F4FCE010596B8010E9485
:10067000D2048985823040F08989823028F0C70110
:10068000B8010E944A0501C08FEF6896E6E00C941D
:10069000E510A8E1B0E0EFE4F3E00C94C910698341
:1006A0007A838B839C832D833E834F83588789E095
:1006B000E82EF12CEC0EFD1ECE010196B7010E9432
:1006C000D2048E010F5E1F4FCE010596B8010E9425
:1006D000D2048985823040F08989823028F0C701B0
:1006E000B8010E944A0501C08FEF6896E6E00C94BD
:1006F000E510A8E1B0E0EFE7F3E00C94C9106983DE
:100700007A838B839C832D833E834F83588789E034
:10071000E82EF12CEC0EFD1ECE010196B7010E94D1
:10072000D2048E010F5E1F4FCE010596B8010E94C4
:10073000D2048985823040F08989823028F0C7014F
:10074000B8010E944A0501C081E06896E6E00C9479
:10075000E510ACE0B0E0EFEAF3E00C94CD10698373
:100760007A838B839C83CE010196BE016B5F7F4FA2
:100770000E94D2048D81823061F1823050F1843048
:1007800021F48E81882351F12EC02F81388537FDC9
:1007900020C06E812F3131051CF06623F9F023C093
:1007A0008EE190E0821B930B29853A854B855C8511
:1007B00004C056954795379527958A95D2F76623B5
:1007C000B1F050954095309521953F4F4F4F5F4F79
:1007D0000EC020E030E040E050E009C02FEF3FEFD6
:1007E0004FEF5FE704C020E030E040E050E8B9019F
:1007F000CA012C96E2E00C94E910DF92EF92FF928E
:100800000F931F93FC01E480F58006811781D1804E
:100810008081823048F480E090E0A0E1B0E0E82AF6
:10082000F92A0A2B1B2BA5C0843009F49FC0823003
:1008300021F4EE24FF24870105C0E114F104010531
:10084000110519F4E0E0F0E096C0628173819FEF3A
:10085000623879070CF05BC022E83FEF261B370BAC
:100860002A3131052CF020E030E040E050E02AC091
:10087000B801A701022E04C0769567955795479554
:100880000A94D2F781E090E0A0E0B0E004C0880FC5
:10089000991FAA1FBB1F2A95D2F70197A109B10979
:1008A0008E219F21A023B1230097A105B10521F03E
:1008B00081E090E0A0E0B0E09A01AB01282B392B59
:1008C0004A2B5B2BDA01C9018F779070A070B07052
:1008D00080349105A105B10539F427FF09C0205CDA
:1008E0003F4F4F4F5F4F04C0215C3F4F4F4F5F4F13
:1008F000E0E0F0E02030A0E03A07A0E04A07A0E402
:100900005A0710F0E1E0F0E079018A0127C0603871
:10091000710564F5FB01E158FF4FD801C7018F77DE
:100920009070A070B07080349105A105B10539F4C4
:10093000E7FE0DC080E490E0A0E0B0E004C08FE3EB
:1009400090E0A0E0B0E0E80EF91E0A1F1B1F17FFA1
:1009500005C016950795F794E794319687E01695AC
:100960000795F794E7948A95D1F705C0EE24FF2404
:100970008701EFEFF0E06E2F679566276795902F60
:100980009F77D794DD24D7948E2F8695492F462BB9
:10099000582F5D29B701CA011F910F91FF90EF9069
:1009A000DF900895FC01DB01408151812281622F9B
:1009B0006F7770E0221F2227221F9381892F880FD3
:1009C000822B282F30E0991F9927991F11969C930D
:1009D000119721153105A9F54115510561057105DD
:1009E00011F482E037C082E89FEF13969C938E93B8
:1009F00012979A01AB0167E0220F331F441F551F66
:100A00006A95D1F783E08C930DC0220F331F441FEA
:100A1000551F12968D919C911397019713969C9355
:100A20008E931297203080E0380780E0480780E4FA
:100A3000580758F314962D933D934D935C93179755
:100A400008952F3F310579F4411551056105710570
:100A500019F484E08C93089564FF03C081E08C93C3
:100A600012C01C9210C02F57304013963C932E9307
:100A7000129783E08C9387E0440F551F661F771F02
:100A80008A95D1F7706414964D935D936D937C9322
:100A9000179708951F93DC01FB019C91923008F495
:100AA00047C08081823008F443C0943051F41196DD
:100AB0001C91843099F58181682F70E0611B710968
:100AC0003FC0843021F0923031F48230B9F181811D
:100AD000882389F12DC011961C9111978230F1F075
:100AE00081811817D9F412962D913C911397828128
:100AF00093818217930794F028173907BCF0149656
:100B00008D919D910D90BC91A02D248135814681C0
:100B10005781281739074A075B0718F4112341F05A
:100B20000AC082179307A407B50740F4112319F0F0
:100B300061E070E005C06FEF7FEF02C060E070E041
:100B4000CB011F910895DF93CF93CDB7DEB72F97D9
:100B50000FB6F894DEBF0FBECDBF8F8783E060E095
:100B600040E00E94480B83E061E040E00E94480BB7
:100B700081E06F850E94060B83E062E041E00E9405
:100B8000480B80E090E0A0E8BFE38B879C87AD87AF
:100B9000BE876B857C858D859E8520E030E04AE7A9
:100BA00053E40E941F02DC01CB018F839887A98741
:100BB000BA876F81788589859A8520E030E040E8A2
:100BC0005FE30E94790388232CF481E090E09E8308
:100BD0008D833FC06F81788589859A8520E03FEFBE
:100BE0004FE757E40E94190318164CF56B857C8576
:100BF0008D859E8520E030E040E251E40E941F0296
:100C0000DC01CB01BC01CD010E944900DC01CB011C
:100C10009E838D830FC089E190E09C838B838B81C1
:100C20009C810197F1F79C838B838D819E81019735
:100C30009E838D838D819E81009769F714C06F819B
:100C4000788589859A850E944900DC01CB019E83C5
:100C50008D838D819E819A83898389819A81019771
:100C6000F1F79A83898383E062E040E00E94480BB9
:100C70002F960FB6F894DEBF0FBECDBFCF91DF9198
:100C80000895DF93CF93CDB7DEB72F970FB6F894C3
:100C9000DEBF0FBECDBF8F8783E060E041E00E94E2
:100CA000480B83E061E040E00E94480B81E06F85E3
:100CB0000E94060B83E062E041E00E94480B80E066
:100CC00090E0A0E8BFE38B879C87AD87BE876B85EC
:100CD0007C858D859E8520E030E04AE753E40E94C4
:100CE0001F02DC01CB018F839887A987BA876F81A8
:100CF000788589859A8520E030E040E85FE30E94AE
:100D0000790388232CF481E090E09E838D833FC09B
:100D10006F81788589859A8520E03FEF4FE757E41A
:100D20000E94190318164CF56B857C858D859E8570
:100D300020E030E040E251E40E941F02DC01CB01E0
:100D4000BC01CD010E944900DC01CB019E838D8353
:100D50000FC089E190E09C838B838B819C810197FC
:100D6000F1F79C838B838D819E8101979E838D8378
:100D70008D819E81009769F714C06F817885898580
:100D80009A850E944900DC01CB019E838D838D8171
:100D90009E819A83898389819A810197F1F79A8349
:100DA000898383E062E040E00E94480B2F960FB6F3
:100DB000F894DEBF0FBECDBFCF91DF910895DF93D2
:100DC000CF93CDB7DEB7E8970FB6F894DEBF0FBE6E
:100DD000CDBF80E090E0A0E2B2E48DAB9EABAFABC4
:100DE000B8AF6DA97EA98FA998AD20E030E04AE7A1
:100DF00053E40E941F02DC01CB0189AB9AABABAB81
:100E0000BCAB69A97AA98BA99CA920E030E040E895
:100E10005FE30E94790388232CF481E090E098AB93
:100E20008FA73FC069A97AA98BA99CA920E03FEFB1
:100E30004FE757E40E94190318164CF56DA97EA9D7
:100E40008FA998AD20E030E040E251E40E941F02FB
:100E5000DC01CB01BC01CD010E944900DC01CB01CA
:100E600098AB8FA70FC089E190E09EA78DA78DA5B5
:100E70009EA50197F1F79EA78DA78FA598A9019729
:100E800098AB8FA78FA598A9009769F714C069A997
:100E90007AA98BA99CA90E944900DC01CB0198ABDF
:100EA0008FA78FA598A99CA78BA78BA59CA5019719
:100EB000F1F79CA78BA788E30E94A30580E090E050
:100EC000A0E8BFE38FA398A7A9A7BAA76FA178A5A9
:100ED00089A59AA520E030E04AE753E40E941F026A
:100EE000DC01CB018BA39CA3ADA3BEA36BA17CA112
:100EF0008DA19EA120E030E040E85FE30E947903ED
:100F000088232CF481E090E09AA389A33FC06BA1D1
:100F10007CA18DA19EA120E03FEF4FE757E40E9406
:100F2000190318164CF56FA178A589A59AA520E09C
:100F300030E040E251E40E941F02DC01CB01BC0121
:100F4000CD010E944900DC01CB019AA389A30FC007
:100F500089E190E098A38F8F8F8D98A10197F1F789
:100F600098A38F8F89A19AA101979AA389A389A198
:100F70009AA1009769F714C06BA17CA18DA19EA1D5
:100F80000E944900DC01CB019AA389A389A19AA1FF
:100F90009E8F8D8F8D8D9E8D0197F1F79E8F8D8FFA
:100FA0008CE00E94A30580E090E0A0E8BFE3898F79
:100FB0009A8FAB8FBC8F698D7A8D8B8D9C8D20E045
:100FC00030E04AE753E40E941F02DC01CB018D8B25
:100FD0009E8BAF8BB88F6D897E898F89988D20E02D
:100FE00030E040E85FE30E94790388232CF481E03D
:100FF00090E09C8B8B8B3FC06D897E898F89988D0B
:1010000020E03FEF4FE757E40E94190318164CF514
:10101000698D7A8D8B8D9C8D20E030E040E251E42B
:101020000E941F02DC01CB01BC01CD010E944900DE
:10103000DC01CB019C8B8B8B0FC089E190E09A8BFC
:10104000898B89899A890197F1F79A8B898B8B898A
:101050009C8901979C8B8B8B8B899C89009769F766
:1010600014C06D897E898F89988D0E944900DC01AA
:10107000CB019C8B8B8B8B899C89988B8F878F85E1
:1010800098890197F1F7988B8F8781E00E94A305DB
:1010900080E090E0A0E0B0E48B879C87AD87BE87BE
:1010A0006B857C858D859E8520E030E04AE753E4A2
:1010B0000E941F02DC01CB018F839887A987BA8722
:1010C0006F81788589859A8520E030E040E85FE38C
:1010D0000E94790388232CF481E090E09E838D8325
:1010E0003FC06F81788589859A8520E03FEF4FE783
:1010F00057E40E94190318164CF56B857C858D8585
:101100009E8520E030E040E251E40E941F02DC01B5
:10111000CB01BC01CD010E944900DC01CB019E83C3
:101120008D830FC089E190E09C838B838B819C81B0
:101130000197F1F79C838B838D819E8101979E831C
:101140008D838D819E81009769F714C06F817885AA
:1011500089859A850E944900DC01CB019E838D839D
:101160008D819E819A83898389819A810197F1F784
:101170009A838983E8960FB6F894DEBF0FBECDBF81
:10118000CF91DF910895DF93CF9300D00F92CDB729
:10119000DEB79B838A8319820EC08981282F30E0B5
:1011A0008A819B81FC01E20FF31F80810E9441062E
:1011B00089818F5F89838981282F30E08A819B8193
:1011C000FC01E20FF31F8081882339F70F900F9005
:1011D0000F90CF91DF9108950F931F93DF93CF93DB
:1011E000CDB7DEB760970FB6F894DEBF0FBECDBFA8
:1011F0006D877E878F87988B1A8219828D859E8551
:10120000AF85B8890097A105B10591F580E30E94EB
:1012100041064DC08A81082F10E08D859E85AF85DF
:10122000B8892AE030E040E050E0BC01CD010E94E6
:101230009B10DC01CB01282F205DCE010396FC0121
:10124000E00FF11F20838D859E85AF85B8892AE048
:1012500030E040E050E0BC01CD010E949B10DA017B
:10126000C9018D879E87AF87B88B8A818F5F8A83FC
:101270008D859E85AF85B8890097A105B10551F68A
:101280008A81898311C08981882F90E09C01215037
:101290003040CE010396FC01E20FF31F80810E94D3
:1012A00041068981815089838981882361F760960D
:1012B0000FB6F894DEBF0FBECDBFCF91DF911F9167
:1012C0000F910895DF93CF9300D00F92CDB7DEB783
:1012D0008A836B8319828A81882319F48B8189839D
:1012E00006C08A81813019F48B81805C8983898171
:1012F00080580E94A3050F900F900F90CF91DF911F
:101300000895DF93CF93CDB7DEB727970FB6F89444
:10131000DEBF0FBECDBF9C838B836D834E832F8337
:101320001A828D81882F90E0880F991F880F991F4E
:10133000880F991F89838981805C0E94A3050EC054
:101340008A81282F30E08B819C81FC01E20FF31F02
:1013500080810E9441068A818F5F8A838A818830DA
:1013600078F38E816F810E94620927960FB6F894F8
:10137000DEBF0FBECDBFCF91DF910895DF93CF9336
:1013800000D000D0CDB7DEB789836A838981282F4A
:1013900030E03C832B838B819C8182309105D9F096
:1013A0002B813C812330310534F48B819C81813049
:1013B000910561F01EC02B813C812330310581F005
:1013C0008B819C818430910581F013C0EAE3F0E0C9
:1013D0008A8180830EC0E7E3F0E08A81808309C0C0
:1013E000E4E3F0E08A81808304C0E1E3F0E08A81F5
:1013F00080830F900F900F900F90CF91DF91089501
:10140000DF93CF93CDB7DEB727970FB6F894DEBF43
:101410000FBECDBF89836A834B838A81883008F0F1
:10142000ECC08B81813009F070C08981282F30E0B9
:101430003F832E838E819F818230910551F12E81D1
:101440003F812330310534F48E819F8181309105B5
:1014500061F0D3C02E813F812330310571F18E813F
:101460009F8184309105E9F1C8C0AAE3B0E0EAE3C6
:10147000F0E08081482F8A81282F30E081E090E0E1
:10148000022E02C0880F991F0A94E2F7842B8C93D6
:10149000B4C0A7E3B0E0E7E3F0E08081482F8A81A1
:1014A000282F30E081E090E0022E02C0880F991FC3
:1014B0000A94E2F7842B8C93A0C0A4E3B0E0E4E3A9
:1014C000F0E08081482F8A81282F30E081E090E091
:1014D000022E02C0880F991F0A94E2F7842B8C9386
:1014E0008CC0A1E3B0E0E1E3F0E08081482F8A8185
:1014F000282F30E081E090E0022E02C0880F991F73
:101500000A94E2F7842B8C9378C08B81882309F0AE
:1015100074C08981282F30E03D832C838C819D818C
:101520008230910561F12C813D812330310534F405
:101530008C819D818130910569F05FC02C813D8156
:101540002330310589F18C819D818430910509F426
:1015500040C053C0AAE3B0E0EAE3F0E08081482F46
:101560008A81282F30E081E090E0022E02C0880FAF
:10157000991F0A94E2F7809584238C933EC0A7E3D9
:10158000B0E0E7E3F0E08081482F8A81282F30E047
:1015900081E090E0022E02C0880F991F0A94E2F7C2
:1015A000809584238C9329C0A4E3B0E0E4E3F0E0C9
:1015B0008081482F8A81282F30E081E090E0022E40
:1015C00002C0880F991F0A94E2F7809584238C93B8
:1015D00014C0A1E3B0E0E1E3F0E08081482F8A810C
:1015E000282F30E081E090E0022E02C0880F991F82
:1015F0000A94E2F7809584238C9327960FB6F8948B
:10160000DEBF0FBECDBFCF91DF910895DF93CF93A3
:1016100000D000D0CDB7DEB789836A838981282FB7
:1016200030E03C832B838B819C8182309105D9F003
:101630002B813C812330310534F48B819C818130B6
:10164000910561F01EC02B813C812330310581F072
:101650008B819C818430910581F013C0EBE3F0E035
:101660008A8180830EC0E8E3F0E08A81808309C02C
:10167000E5E3F0E08A81808304C0E2E3F0E08A8160
:1016800080830F900F900F900F90CF91DF9108956E
:10169000DF93CF93CDB7DEB727970FB6F894DEBFB1
:1016A0000FBECDBF89836A834B838A81883008F05F
:1016B000ECC08B81813009F070C08981282F30E027
:1016C0003F832E838E819F818230910551F12E813F
:1016D0003F812330310534F48E819F818130910523
:1016E00061F0D3C02E813F812330310571F18E81AD
:1016F0009F8184309105E9F1C8C0ABE3B0E0EBE332
:10170000F0E08081482F8A81282F30E081E090E04E
:10171000022E02C0880F991F0A94E2F7842B8C9343
:10172000B4C0A8E3B0E0E8E3F0E08081482F8A810C
:10173000282F30E081E090E0022E02C0880F991F30
:101740000A94E2F7842B8C93A0C0A5E3B0E0E5E314
:10175000F0E08081482F8A81282F30E081E090E0FE
:10176000022E02C0880F991F0A94E2F7842B8C93F3
:101770008CC0A2E3B0E0E2E3F0E08081482F8A81F0
:10178000282F30E081E090E0022E02C0880F991FE0
:101790000A94E2F7842B8C9378C08B81882309F01C
:1017A00074C08981282F30E03D832C838C819D81FA
:1017B0008230910561F12C813D812330310534F473
:1017C0008C819D818130910569F05FC02C813D81C4
:1017D0002330310589F18C819D818430910509F494
:1017E00040C053C0ABE3B0E0EBE3F0E08081482FB2
:1017F0008A81282F30E081E090E0022E02C0880F1D
:10180000991F0A94E2F7809584238C933EC0A8E345
:10181000B0E0E8E3F0E08081482F8A81282F30E0B3
:1018200081E090E0022E02C0880F991F0A94E2F72F
:10183000809584238C9329C0A5E3B0E0E5E3F0E034
:101840008081482F8A81282F30E081E090E0022EAD
:1018500002C0880F991F0A94E2F7809584238C9325
:1018600014C0A2E3B0E0E2E3F0E08081482F8A8177
:10187000282F30E081E090E0022E02C0880F991FEF
:101880000A94E2F7809584238C9327960FB6F894F8
:10189000DEBF0FBECDBFCF91DF910895DF93CF9311
:1018A00000D000D00F92CDB7DEB78A836B83198248
:1018B0008B81883008F067C08A81282F30E03D8313
:1018C0002C834C815D814230510541F18C819D8199
:1018D0008330910534F42C813D812130310561F054
:1018E00052C04C815D814330510551F18C819D8105
:1018F00084309105B9F147C0E9E3F0E08081282FF9
:1019000030E08B81882F90E0A90102C05595479562
:101910008A95E2F7CA018170898335C0E6E3F0E079
:101920008081282F30E08B81882F90E0A90102C0B0
:10193000559547958A95E2F7CA018170898323C03E
:10194000E3E3F0E08081282F30E08B81882F90E066
:10195000A90102C0559547958A95E2F7CA018170A1
:10196000898311C0E0E3F0E08081282F30E08B8193
:10197000882F90E0A90102C0559547958A95E2F716
:10198000CA018170898389810F900F900F900F9009
:101990000F90CF91DF910895DF93CF93CDB7DEB74E
:1019A0002A970FB6F894DEBF0FBECDBF89836A8336
:1019B0008A81282F30E03A87298789859A85813066
:1019C000910509F466C029853A852230310509F46C
:1019D000BBC089859A85009709F0D5C08981282FD9
:1019E00030E038872F838F8198858130910521F1F0
:1019F0002F813885223031052CF48F81988500970E
:101A000061F0C1C02F8138852230310521F18F81ED
:101A100098858330910571F1B6C0A5E5B0E0E5E5A4
:101A2000F0E080818E7F8C93A5E5B0E0E5E5F0E005
:101A300080818D7F8C93A7C0A5E5B0E0E5E5F0E05F
:101A4000808181608C93A5E5B0E0E5E5F0E08081E0
:101A50008D7F8C9398C0A5E5B0E0E5E5F0E080814E
:101A60008E7F8C93A5E5B0E0E5E5F0E080818260B3
:101A70008C9389C0A5E5B0E0E5E5F0E08081816068
:101A80008C93A5E5B0E0E5E5F0E0808182608C9381
:101A90007AC08981282F30E03E832D838D819E81FD
:101AA0008130910521F12D813E81223031052CF4C8
:101AB0008D819E81009761F066C02D813E8122302C
:101AC000310521F18D819E818330910571F15BC0DB
:101AD000A5E5B0E0E5E5F0E080818B7F8C93A5E59E
:101AE000B0E0E5E5F0E08081877F8C934CC0A5E510
:101AF000B0E0E5E5F0E0808184608C93A5E5B0E09E
:101B0000E5E5F0E08081877F8C933DC0A5E5B0E0FE
:101B1000E5E5F0E080818B7F8C93A5E5B0E0E5E51D
:101B2000F0E0808188608C932EC0A5E5B0E0E5E50B
:101B3000F0E0808184608C93A5E5B0E0E5E5F0E01D
:101B4000808188608C931FC08981282F30E03C837E
:101B50002B838B819C818230910531F02B813C81DC
:101B60002330310549F00FC0A4E5B0E0E4E5F0E032
:101B700080818F7B8C9307C0A4E5B0E0E4E5F0E0C2
:101B8000808180648C932A960FB6F894DEBF0FBED6
:101B9000CDBFCF91DF910895DF93CF9300D00F9207
:101BA000CDB7DEB789838981282F30E03B832A8334
:101BB0008A819B818130910589F02A813B81223085
:101BC0003105A1F08A819B810097B9F4ABE5B0E0C3
:101BD000EBE5F0E0808180648C930FC0ABE5B0E072
:101BE000EBE5F0E0808180688C9307C0ABE5B0E066
:101BF000EBE5F0E0808180628C930F900F900F9066
:101C0000CF91DF910895DF93CF9300D00F92CDB79E
:101C1000DEB789838981282F30E03B832A838A813C
:101C20009B818130910589F02A813B8122303105E9
:101C3000A1F08A819B810097B9F4ABE5B0E0EBE5B8
:101C4000F0E080818F7B8C930FC0ABE5B0E0EBE5DB
:101C5000F0E080818F778C9307C0ABE5B0E0EBE5D7
:101C6000F0E080818F7D8C930F900F900F90CF913B
:101C7000DF910895DF93CF9300D000D00F92CDB7BE
:101C8000DEB789837B836A838A819B81009741F1D8
:101C90008981282F30E03D832C838C819D81813088
:101CA000910581F02C813D812230310591F08C81AC
:101CB0009D810097B1F48A819B8190937D008093F0
:101CC0007C000FC08A819B8190937F0080937E006F
:101CD00008C08A819B81909381008093800001C01D
:101CE00000000F900F900F900F900F90CF91DF9109
:101CF00008951F920F920FB60F9211242F933F93C6
:101D00004F935F936F937F938F939F93AF93BF9303
:101D1000EF93FF93DF93CF93CDB7DEB780917C0035
:101D200090917D00009731F0E0917C00F0917D0072
:101D3000099501C00000CF91DF91FF91EF91BF9114
:101D4000AF919F918F917F916F915F914F913F9153
:101D50002F910F900FBE0F901F9018951F920F920A
:101D60000FB60F9211242F933F934F935F936F936E
:101D70007F938F939F93AF93BF93EF93FF93DF93E3
:101D8000CF93CDB7DEB780917E0090917F00009712
:101D900031F0E0917E00F0917F00099501C00000D4
:101DA000CF91DF91FF91EF91BF91AF919F918F9173
:101DB0007F916F915F914F913F912F910F900FBE47
:101DC0000F901F9018951F920F920FB60F9211242B
:101DD0002F933F934F935F936F937F938F939F9333
:101DE000AF93BF93EF93FF93DF93CF93CDB7DEB75E
:101DF0008091800090918100009731F0E091800007
:101E0000F0918100099501C00000CF91DF91FF9111
:101E1000EF91BF91AF919F918F917F916F915F9162
:101E20004F913F912F910F900FBE0F901F901895DB
:101E3000DF93CF93CDB7DEB7AFE5B0E0EFE5F0E0ED
:101E4000808180688C93CF91DF910895DF93CF9349
:101E5000CDB7DEB7AFE5B0E0EFE5F0E080818F779A
:101E60008C93CF91DF910895DF93CF93CDB7DEB7F9
:101E7000A3E5B0E0E3E5F0E0808188608C93A3E522
:101E8000B0E0E3E5F0E0808180648C93ECE5F0E085
:101E900080E48083A3E5B0E0E3E5F0E080818F7E1D
:101EA0008C93A3E5B0E0E3E5F0E0808180628C9361
:101EB000A3E5B0E0E3E5F0E080818E7F8C93A3E5BD
:101EC000B0E0E3E5F0E0808182608C93A3E5B0E0D0
:101ED000E3E5F0E080818B7F8C93CF91DF910895D3
:101EE000DF93CF9300D00F92CDB7DEB79B838A8369
:101EF00019828A819B81009739F08A819B81909316
:101F000083008093820002C081E0898389810F90E1
:101F10000F900F90CF91DF9108951F920F920FB6FF
:101F20000F921124DF93CF93CDB7DEB7CF91DF911E
:101F30000F900FBE0F901F901895DF93CF930F92C5
:101F4000CDB7DEB78983ECE5F0E0898180830F901F
:101F5000CF91DF910895DF93CF93CDB7DEB7AEE495
:101F6000B0E0EEE4F0E080818E7F8C93AEE4B0E0F0
:101F7000EEE4F0E0808182608C93AEE4B0E0EEE4C9
:101F8000F0E080818B7F8C93CF91DF910895DF9378
:101F9000CF9300D0CDB7DEB79A838983ECE4F0E02D
:101FA00089819A81918380830F900F90CF91DF91E7
:101FB0000895DF93CF93CDB7DEB7ECE4F0E08081F6
:101FC0009181CF91DF910895DF93CF9300D0CDB76A
:101FD000DEB79A838983EAE4F0E089819A8191836C
:101FE00080830F900F90CF91DF910895DF93CF936F
:101FF00000D0CDB7DEB79A838983E6E4F0E089812B
:102000009A81918380830F900F90CF91DF910895F3
:10201000DF93CF93CDB7DEB781E06FEF0E94BE09AB
:1020200083E06FEF0E94BE0982E063E041E00E941E
:10203000000A84E062E040E00E94000A0E94DF069D
:102040000E94340F0E94AB0F80E00E94CC0D80E014
:1020500063E00E94CC0C0E94180F2AE530E180E07A
:10206000B9010E943A0E80E060E00E94620980E6B9
:1020700090E00E94C3088091860090918700CC0177
:10208000A0E0B0E0BC01CD010E94EC0881E060E07E
:102090000E9462098AE690E00E94C3088091840051
:1020A00090918500CC01A0E0B0E0BC01CD010E9480
:1020B000EC08D9CFDF93CF93CDB7DEB780918800FE
:1020C0008F5F8093880080918800813029F480E0C0
:1020D00090E00E94C70F2CC080918800823059F494
:1020E0000E94D90F909385008093840080E062E085
:1020F0000E94CC0C1DC0809188008330C9F40E94DE
:10210000D90F9093870080938600209186003091AC
:1021100087008091840090918500A901481B590B8C
:10212000CA01909387008093860080E00E94030E8E
:10213000CF91DF910895A1E21A2EAA1BBB1BFD01CE
:102140000DC0AA1FBB1FEE1FFF1FA217B307E40796
:10215000F50720F0A21BB30BE40BF50B661F771FEE
:10216000881F991F1A9469F76095709580959095CE
:102170009B01AC01BD01CF0108952F923F924F9278
:102180005F926F927F928F929F92AF92BF92CF9207
:10219000DF92EF92FF920F931F93CF93DF93CDB710
:1021A000DEB7CA1BDB0B0FB6F894DEBF0FBECDBF88
:1021B00009942A88398848885F846E847D848C8459
:1021C0009B84AA84B984C884DF80EE80FD800C8162
:1021D0001B81AA81B981CE0FD11D0FB6F894DEBF45
:0C21E0000FBECDBFED010895F894FFCFB5
:1021EC00447574792069733A200050657469636B87
:0C21FC00733A200000000000000000000A
:00000001FF
